{
  "_format": "hh-sol-artifact-1",
  "contractName": "NFT",
  "sourceName": "contracts/NFT.sol",
  "abi": [
    {
      "inputs": [],
      "stateMutability": "nonpayable",
      "type": "constructor"
    },
    {
      "anonymous": false,
      "inputs": [
        {
          "indexed": true,
          "internalType": "address",
          "name": "owner",
          "type": "address"
        },
        {
          "indexed": true,
          "internalType": "address",
          "name": "approved",
          "type": "address"
        },
        {
          "indexed": true,
          "internalType": "uint256",
          "name": "tokenId",
          "type": "uint256"
        }
      ],
      "name": "Approval",
      "type": "event"
    },
    {
      "anonymous": false,
      "inputs": [
        {
          "indexed": true,
          "internalType": "address",
          "name": "owner",
          "type": "address"
        },
        {
          "indexed": true,
          "internalType": "address",
          "name": "operator",
          "type": "address"
        },
        {
          "indexed": false,
          "internalType": "bool",
          "name": "approved",
          "type": "bool"
        }
      ],
      "name": "ApprovalForAll",
      "type": "event"
    },
    {
      "anonymous": false,
      "inputs": [
        {
          "indexed": true,
          "internalType": "address",
          "name": "previousOwner",
          "type": "address"
        },
        {
          "indexed": true,
          "internalType": "address",
          "name": "newOwner",
          "type": "address"
        }
      ],
      "name": "OwnershipTransferred",
      "type": "event"
    },
    {
      "anonymous": false,
      "inputs": [
        {
          "indexed": true,
          "internalType": "address",
          "name": "from",
          "type": "address"
        },
        {
          "indexed": true,
          "internalType": "address",
          "name": "to",
          "type": "address"
        },
        {
          "indexed": true,
          "internalType": "uint256",
          "name": "tokenId",
          "type": "uint256"
        }
      ],
      "name": "Transfer",
      "type": "event"
    },
    {
      "inputs": [
        {
          "internalType": "address",
          "name": "to",
          "type": "address"
        },
        {
          "internalType": "uint256",
          "name": "tokenId",
          "type": "uint256"
        }
      ],
      "name": "approve",
      "outputs": [],
      "stateMutability": "nonpayable",
      "type": "function"
    },
    {
      "inputs": [
        {
          "internalType": "address",
          "name": "owner",
          "type": "address"
        }
      ],
      "name": "balanceOf",
      "outputs": [
        {
          "internalType": "uint256",
          "name": "",
          "type": "uint256"
        }
      ],
      "stateMutability": "view",
      "type": "function"
    },
    {
      "inputs": [
        {
          "internalType": "uint256",
          "name": "tokenId",
          "type": "uint256"
        }
      ],
      "name": "getApproved",
      "outputs": [
        {
          "internalType": "address",
          "name": "",
          "type": "address"
        }
      ],
      "stateMutability": "view",
      "type": "function"
    },
    {
      "inputs": [
        {
          "internalType": "address",
          "name": "owner",
          "type": "address"
        },
        {
          "internalType": "address",
          "name": "operator",
          "type": "address"
        }
      ],
      "name": "isApprovedForAll",
      "outputs": [
        {
          "internalType": "bool",
          "name": "",
          "type": "bool"
        }
      ],
      "stateMutability": "view",
      "type": "function"
    },
    {
      "inputs": [],
      "name": "name",
      "outputs": [
        {
          "internalType": "string",
          "name": "",
          "type": "string"
        }
      ],
      "stateMutability": "view",
      "type": "function"
    },
    {
      "inputs": [],
      "name": "owner",
      "outputs": [
        {
          "internalType": "address",
          "name": "",
          "type": "address"
        }
      ],
      "stateMutability": "view",
      "type": "function"
    },
    {
      "inputs": [
        {
          "internalType": "uint256",
          "name": "tokenId",
          "type": "uint256"
        }
      ],
      "name": "ownerOf",
      "outputs": [
        {
          "internalType": "address",
          "name": "",
          "type": "address"
        }
      ],
      "stateMutability": "view",
      "type": "function"
    },
    {
      "inputs": [],
      "name": "renounceOwnership",
      "outputs": [],
      "stateMutability": "nonpayable",
      "type": "function"
    },
    {
      "inputs": [
        {
          "internalType": "address",
          "name": "to",
          "type": "address"
        },
        {
          "internalType": "string",
          "name": "uri",
          "type": "string"
        },
        {
          "internalType": "string",
          "name": "_serialNumber",
          "type": "string"
        }
      ],
      "name": "safeMint",
      "outputs": [],
      "stateMutability": "nonpayable",
      "type": "function"
    },
    {
      "inputs": [
        {
          "internalType": "address",
          "name": "from",
          "type": "address"
        },
        {
          "internalType": "address",
          "name": "to",
          "type": "address"
        },
        {
          "internalType": "uint256",
          "name": "tokenId",
          "type": "uint256"
        }
      ],
      "name": "safeTransferFrom",
      "outputs": [],
      "stateMutability": "nonpayable",
      "type": "function"
    },
    {
      "inputs": [
        {
          "internalType": "address",
          "name": "from",
          "type": "address"
        },
        {
          "internalType": "address",
          "name": "to",
          "type": "address"
        },
        {
          "internalType": "uint256",
          "name": "tokenId",
          "type": "uint256"
        },
        {
          "internalType": "bytes",
          "name": "data",
          "type": "bytes"
        }
      ],
      "name": "safeTransferFrom",
      "outputs": [],
      "stateMutability": "nonpayable",
      "type": "function"
    },
    {
      "inputs": [
        {
          "internalType": "string",
          "name": "",
          "type": "string"
        }
      ],
      "name": "serialNumberToTokenId",
      "outputs": [
        {
          "internalType": "uint256",
          "name": "",
          "type": "uint256"
        }
      ],
      "stateMutability": "view",
      "type": "function"
    },
    {
      "inputs": [
        {
          "internalType": "address",
          "name": "operator",
          "type": "address"
        },
        {
          "internalType": "bool",
          "name": "approved",
          "type": "bool"
        }
      ],
      "name": "setApprovalForAll",
      "outputs": [],
      "stateMutability": "nonpayable",
      "type": "function"
    },
    {
      "inputs": [
        {
          "internalType": "bytes4",
          "name": "interfaceId",
          "type": "bytes4"
        }
      ],
      "name": "supportsInterface",
      "outputs": [
        {
          "internalType": "bool",
          "name": "",
          "type": "bool"
        }
      ],
      "stateMutability": "view",
      "type": "function"
    },
    {
      "inputs": [],
      "name": "symbol",
      "outputs": [
        {
          "internalType": "string",
          "name": "",
          "type": "string"
        }
      ],
      "stateMutability": "view",
      "type": "function"
    },
    {
      "inputs": [
        {
          "internalType": "uint256",
          "name": "index",
          "type": "uint256"
        }
      ],
      "name": "tokenByIndex",
      "outputs": [
        {
          "internalType": "uint256",
          "name": "",
          "type": "uint256"
        }
      ],
      "stateMutability": "view",
      "type": "function"
    },
    {
      "inputs": [
        {
          "internalType": "address",
          "name": "owner",
          "type": "address"
        },
        {
          "internalType": "uint256",
          "name": "index",
          "type": "uint256"
        }
      ],
      "name": "tokenOfOwnerByIndex",
      "outputs": [
        {
          "internalType": "uint256",
          "name": "",
          "type": "uint256"
        }
      ],
      "stateMutability": "view",
      "type": "function"
    },
    {
      "inputs": [
        {
          "internalType": "uint256",
          "name": "tokenId",
          "type": "uint256"
        }
      ],
      "name": "tokenURI",
      "outputs": [
        {
          "internalType": "string",
          "name": "",
          "type": "string"
        }
      ],
      "stateMutability": "view",
      "type": "function"
    },
    {
      "inputs": [],
      "name": "totalSupply",
      "outputs": [
        {
          "internalType": "uint256",
          "name": "",
          "type": "uint256"
        }
      ],
      "stateMutability": "view",
      "type": "function"
    },
    {
      "inputs": [
        {
          "internalType": "address",
          "name": "from",
          "type": "address"
        },
        {
          "internalType": "address",
          "name": "to",
          "type": "address"
        },
        {
          "internalType": "uint256",
          "name": "tokenId",
          "type": "uint256"
        }
      ],
      "name": "transferFrom",
      "outputs": [],
      "stateMutability": "nonpayable",
      "type": "function"
    },
    {
      "inputs": [
        {
          "internalType": "address",
          "name": "newOwner",
          "type": "address"
        }
      ],
      "name": "transferOwnership",
      "outputs": [],
      "stateMutability": "nonpayable",
      "type": "function"
    }
  ],
  "bytecode": "0x60806040523480156200001157600080fd5b506040518060400160405280600381526020017f4e465400000000000000000000000000000000000000000000000000000000008152506040518060400160405280600381526020017f4e46540000000000000000000000000000000000000000000000000000000000815250816000908051906020019062000096929190620001a6565b508060019080519060200190620000af929190620001a6565b505050620000d2620000c6620000d860201b60201c565b620000e060201b60201c565b620002bb565b600033905090565b6000600b60009054906101000a900473ffffffffffffffffffffffffffffffffffffffff16905081600b60006101000a81548173ffffffffffffffffffffffffffffffffffffffff021916908373ffffffffffffffffffffffffffffffffffffffff1602179055508173ffffffffffffffffffffffffffffffffffffffff168173ffffffffffffffffffffffffffffffffffffffff167f8be0079c531659141344cd1fd0a4f28419497f9722a3daafe3b4186f6b6457e060405160405180910390a35050565b828054620001b49062000256565b90600052602060002090601f016020900481019282620001d8576000855562000224565b82601f10620001f357805160ff191683800117855562000224565b8280016001018555821562000224579182015b828111156200022357825182559160200191906001019062000206565b5b50905062000233919062000237565b5090565b5b808211156200025257600081600090555060010162000238565b5090565b600060028204905060018216806200026f57607f821691505b602082108114156200028657620002856200028c565b5b50919050565b7f4e487b7100000000000000000000000000000000000000000000000000000000600052602260045260246000fd5b6134cb80620002cb6000396000f3fe608060405234801561001057600080fd5b50600436106101375760003560e01c806370a08231116100b8578063b88d4fde1161007c578063b88d4fde1461034e578063bb033cd41461036a578063c87b56dd1461039a578063e985e9c5146103ca578063eca81d42146103fa578063f2fde38b1461041657610137565b806370a08231146102bc578063715018a6146102ec5780638da5cb5b146102f657806395d89b4114610314578063a22cb4651461033257610137565b806323b872dd116100ff57806323b872dd146101f45780632f745c591461021057806342842e0e146102405780634f6ccce71461025c5780636352211e1461028c57610137565b806301ffc9a71461013c57806306fdde031461016c578063081812fc1461018a578063095ea7b3146101ba57806318160ddd146101d6575b600080fd5b61015660048036038101906101519190612653565b610432565b6040516101639190612e23565b60405180910390f35b610174610444565b6040516101819190612e3e565b60405180910390f35b6101a4600480360381019061019f91906126e6565b6104d6565b6040516101b19190612dbc565b60405180910390f35b6101d460048036038101906101cf9190612617565b61051c565b005b6101de610634565b6040516101eb9190613060565b60405180910390f35b61020e60048036038101906102099190612492565b610641565b005b61022a60048036038101906102259190612617565b6106a1565b6040516102379190613060565b60405180910390f35b61025a60048036038101906102559190612492565b610746565b005b610276600480360381019061027191906126e6565b610766565b6040516102839190613060565b60405180910390f35b6102a660048036038101906102a191906126e6565b6107fd565b6040516102b39190612dbc565b60405180910390f35b6102d660048036038101906102d1919061242d565b6108af565b6040516102e39190613060565b60405180910390f35b6102f4610967565b005b6102fe61097b565b60405161030b9190612dbc565b60405180910390f35b61031c6109a5565b6040516103299190612e3e565b60405180910390f35b61034c6004803603810190610347919061255c565b610a37565b005b610368600480360381019061036391906124e1565b610a4d565b005b610384600480360381019061037f91906126a5565b610aaf565b6040516103919190613060565b60405180910390f35b6103b460048036038101906103af91906126e6565b610add565b6040516103c19190612e3e565b60405180910390f35b6103e460048036038101906103df9190612456565b610aef565b6040516103f19190612e23565b60405180910390f35b610414600480360381019061040f9190612598565b610b83565b005b610430600480360381019061042b919061242d565b610be0565b005b600061043d82610c64565b9050919050565b606060008054610453906132c0565b80601f016020809104026020016040519081016040528092919081815260200182805461047f906132c0565b80156104cc5780601f106104a1576101008083540402835291602001916104cc565b820191906000526020600020905b8154815290600101906020018083116104af57829003601f168201915b5050505050905090565b60006104e182610cde565b6004600083815260200190815260200160002060009054906101000a900473ffffffffffffffffffffffffffffffffffffffff169050919050565b6000610527826107fd565b90508073ffffffffffffffffffffffffffffffffffffffff168373ffffffffffffffffffffffffffffffffffffffff161415610598576040517f08c379a000000000000000000000000000000000000000000000000000000000815260040161058f90613000565b60405180910390fd5b8073ffffffffffffffffffffffffffffffffffffffff166105b7610d29565b73ffffffffffffffffffffffffffffffffffffffff1614806105e657506105e5816105e0610d29565b610aef565b5b610625576040517f08c379a000000000000000000000000000000000000000000000000000000000815260040161061c90612f80565b60405180910390fd5b61062f8383610d31565b505050565b6000600880549050905090565b61065261064c610d29565b82610dea565b610691576040517f08c379a000000000000000000000000000000000000000000000000000000000815260040161068890613040565b60405180910390fd5b61069c838383610e7f565b505050565b60006106ac836108af565b82106106ed576040517f08c379a00000000000000000000000000000000000000000000000000000000081526004016106e490612e60565b60405180910390fd5b600660008473ffffffffffffffffffffffffffffffffffffffff1673ffffffffffffffffffffffffffffffffffffffff168152602001908152602001600020600083815260200190815260200160002054905092915050565b61076183838360405180602001604052806000815250610a4d565b505050565b6000610770610634565b82106107b1576040517f08c379a00000000000000000000000000000000000000000000000000000000081526004016107a890613020565b60405180910390fd5b600882815481106107eb577f4e487b7100000000000000000000000000000000000000000000000000000000600052603260045260246000fd5b90600052602060002001549050919050565b6000806002600084815260200190815260200160002060009054906101000a900473ffffffffffffffffffffffffffffffffffffffff169050600073ffffffffffffffffffffffffffffffffffffffff168173ffffffffffffffffffffffffffffffffffffffff1614156108a6576040517f08c379a000000000000000000000000000000000000000000000000000000000815260040161089d90612fe0565b60405180910390fd5b80915050919050565b60008073ffffffffffffffffffffffffffffffffffffffff168273ffffffffffffffffffffffffffffffffffffffff161415610920576040517f08c379a000000000000000000000000000000000000000000000000000000000815260040161091790612f40565b60405180910390fd5b600360008373ffffffffffffffffffffffffffffffffffffffff1673ffffffffffffffffffffffffffffffffffffffff168152602001908152602001600020549050919050565b61096f6110e6565b6109796000611164565b565b6000600b60009054906101000a900473ffffffffffffffffffffffffffffffffffffffff16905090565b6060600180546109b4906132c0565b80601f01602080910402602001604051908101604052809291908181526020018280546109e0906132c0565b8015610a2d5780601f10610a0257610100808354040283529160200191610a2d565b820191906000526020600020905b815481529060010190602001808311610a1057829003601f168201915b5050505050905090565b610a49610a42610d29565b838361122a565b5050565b610a5e610a58610d29565b83610dea565b610a9d576040517f08c379a0000000000000000000000000000000000000000000000000000000008152600401610a9490613040565b60405180910390fd5b610aa984848484611397565b50505050565b600c818051602081018201805184825260208301602085012081835280955050505050506000915090505481565b6060610ae8826113f3565b9050919050565b6000600560008473ffffffffffffffffffffffffffffffffffffffff1673ffffffffffffffffffffffffffffffffffffffff16815260200190815260200160002060008373ffffffffffffffffffffffffffffffffffffffff1673ffffffffffffffffffffffffffffffffffffffff16815260200190815260200160002060009054906101000a900460ff16905092915050565b610b8b6110e6565b6000610b97600d611506565b9050610ba3600d611514565b610bad848261152a565b610bb78184611548565b80600c83604051610bc89190612d81565b90815260200160405180910390208190555050505050565b610be86110e6565b600073ffffffffffffffffffffffffffffffffffffffff168173ffffffffffffffffffffffffffffffffffffffff161415610c58576040517f08c379a0000000000000000000000000000000000000000000000000000000008152600401610c4f90612ea0565b60405180910390fd5b610c6181611164565b50565b60007f780e9d63000000000000000000000000000000000000000000000000000000007bffffffffffffffffffffffffffffffffffffffffffffffffffffffff1916827bffffffffffffffffffffffffffffffffffffffffffffffffffffffff19161480610cd75750610cd6826115bc565b5b9050919050565b610ce78161169e565b610d26576040517f08c379a0000000000000000000000000000000000000000000000000000000008152600401610d1d90612fe0565b60405180910390fd5b50565b600033905090565b816004600083815260200190815260200160002060006101000a81548173ffffffffffffffffffffffffffffffffffffffff021916908373ffffffffffffffffffffffffffffffffffffffff160217905550808273ffffffffffffffffffffffffffffffffffffffff16610da4836107fd565b73ffffffffffffffffffffffffffffffffffffffff167f8c5be1e5ebec7d5bd14f71427d1e84f3dd0314c0f7b2291e5b200ac8c7c3b92560405160405180910390a45050565b600080610df6836107fd565b90508073ffffffffffffffffffffffffffffffffffffffff168473ffffffffffffffffffffffffffffffffffffffff161480610e385750610e378185610aef565b5b80610e7657508373ffffffffffffffffffffffffffffffffffffffff16610e5e846104d6565b73ffffffffffffffffffffffffffffffffffffffff16145b91505092915050565b8273ffffffffffffffffffffffffffffffffffffffff16610e9f826107fd565b73ffffffffffffffffffffffffffffffffffffffff1614610ef5576040517f08c379a0000000000000000000000000000000000000000000000000000000008152600401610eec90612ec0565b60405180910390fd5b600073ffffffffffffffffffffffffffffffffffffffff168273ffffffffffffffffffffffffffffffffffffffff161415610f65576040517f08c379a0000000000000000000000000000000000000000000000000000000008152600401610f5c90612f00565b60405180910390fd5b610f7083838361170a565b610f7b600082610d31565b6001600360008573ffffffffffffffffffffffffffffffffffffffff1673ffffffffffffffffffffffffffffffffffffffff1681526020019081526020016000206000828254610fcb91906131d6565b925050819055506001600360008473ffffffffffffffffffffffffffffffffffffffff1673ffffffffffffffffffffffffffffffffffffffff1681526020019081526020016000206000828254611022919061314f565b92505081905550816002600083815260200190815260200160002060006101000a81548173ffffffffffffffffffffffffffffffffffffffff021916908373ffffffffffffffffffffffffffffffffffffffff160217905550808273ffffffffffffffffffffffffffffffffffffffff168473ffffffffffffffffffffffffffffffffffffffff167fddf252ad1be2c89b69c2b068fc378daa952ba7f163c4a11628f55a4df523b3ef60405160405180910390a46110e183838361171a565b505050565b6110ee610d29565b73ffffffffffffffffffffffffffffffffffffffff1661110c61097b565b73ffffffffffffffffffffffffffffffffffffffff1614611162576040517f08c379a000000000000000000000000000000000000000000000000000000000815260040161115990612fc0565b60405180910390fd5b565b6000600b60009054906101000a900473ffffffffffffffffffffffffffffffffffffffff16905081600b60006101000a81548173ffffffffffffffffffffffffffffffffffffffff021916908373ffffffffffffffffffffffffffffffffffffffff1602179055508173ffffffffffffffffffffffffffffffffffffffff168173ffffffffffffffffffffffffffffffffffffffff167f8be0079c531659141344cd1fd0a4f28419497f9722a3daafe3b4186f6b6457e060405160405180910390a35050565b8173ffffffffffffffffffffffffffffffffffffffff168373ffffffffffffffffffffffffffffffffffffffff161415611299576040517f08c379a000000000000000000000000000000000000000000000000000000000815260040161129090612f20565b60405180910390fd5b80600560008573ffffffffffffffffffffffffffffffffffffffff1673ffffffffffffffffffffffffffffffffffffffff16815260200190815260200160002060008473ffffffffffffffffffffffffffffffffffffffff1673ffffffffffffffffffffffffffffffffffffffff16815260200190815260200160002060006101000a81548160ff0219169083151502179055508173ffffffffffffffffffffffffffffffffffffffff168373ffffffffffffffffffffffffffffffffffffffff167f17307eab39ab6107e8899845ad3d59bd9653f200f220920489ca2b5937696c318360405161138a9190612e23565b60405180910390a3505050565b6113a2848484610e7f565b6113ae8484848461171f565b6113ed576040517f08c379a00000000000000000000000000000000000000000000000000000000081526004016113e490612e80565b60405180910390fd5b50505050565b60606113fe82610cde565b6000600a6000848152602001908152602001600020805461141e906132c0565b80601f016020809104026020016040519081016040528092919081815260200182805461144a906132c0565b80156114975780601f1061146c57610100808354040283529160200191611497565b820191906000526020600020905b81548152906001019060200180831161147a57829003601f168201915b5050505050905060006114a86118b6565b90506000815114156114be578192505050611501565b6000825111156114f35780826040516020016114db929190612d98565b60405160208183030381529060405292505050611501565b6114fc846118cd565b925050505b919050565b600081600001549050919050565b6001816000016000828254019250508190555050565b611544828260405180602001604052806000815250611935565b5050565b6115518261169e565b611590576040517f08c379a000000000000000000000000000000000000000000000000000000000815260040161158790612f60565b60405180910390fd5b80600a600084815260200190815260200160002090805190602001906115b7929190612251565b505050565b60007f80ac58cd000000000000000000000000000000000000000000000000000000007bffffffffffffffffffffffffffffffffffffffffffffffffffffffff1916827bffffffffffffffffffffffffffffffffffffffffffffffffffffffff1916148061168757507f5b5e139f000000000000000000000000000000000000000000000000000000007bffffffffffffffffffffffffffffffffffffffffffffffffffffffff1916827bffffffffffffffffffffffffffffffffffffffffffffffffffffffff1916145b80611697575061169682611990565b5b9050919050565b60008073ffffffffffffffffffffffffffffffffffffffff166002600084815260200190815260200160002060009054906101000a900473ffffffffffffffffffffffffffffffffffffffff1673ffffffffffffffffffffffffffffffffffffffff1614159050919050565b6117158383836119fa565b505050565b505050565b60006117408473ffffffffffffffffffffffffffffffffffffffff16611b0e565b156118a9578373ffffffffffffffffffffffffffffffffffffffff1663150b7a02611769610d29565b8786866040518563ffffffff1660e01b815260040161178b9493929190612dd7565b602060405180830381600087803b1580156117a557600080fd5b505af19250505080156117d657506040513d601f19601f820116820180604052508101906117d3919061267c565b60015b611859573d8060008114611806576040519150601f19603f3d011682016040523d82523d6000602084013e61180b565b606091505b50600081511415611851576040517f08c379a000000000000000000000000000000000000000000000000000000000815260040161184890612e80565b60405180910390fd5b805181602001fd5b63150b7a0260e01b7bffffffffffffffffffffffffffffffffffffffffffffffffffffffff1916817bffffffffffffffffffffffffffffffffffffffffffffffffffffffff1916149150506118ae565b600190505b949350505050565b606060405180602001604052806000815250905090565b60606118d882610cde565b60006118e26118b6565b90506000815111611902576040518060200160405280600081525061192d565b8061190c84611b4d565b60405160200161191d929190612d98565b6040516020818303038152906040525b915050919050565b61193f8383611cfa565b61194c600084848461171f565b61198b576040517f08c379a000000000000000000000000000000000000000000000000000000000815260040161198290612e80565b60405180910390fd5b505050565b60007f01ffc9a7000000000000000000000000000000000000000000000000000000007bffffffffffffffffffffffffffffffffffffffffffffffffffffffff1916827bffffffffffffffffffffffffffffffffffffffffffffffffffffffff1916149050919050565b611a05838383611ed4565b600073ffffffffffffffffffffffffffffffffffffffff168373ffffffffffffffffffffffffffffffffffffffff161415611a4857611a4381611ed9565b611a87565b8173ffffffffffffffffffffffffffffffffffffffff168373ffffffffffffffffffffffffffffffffffffffff1614611a8657611a858382611f22565b5b5b600073ffffffffffffffffffffffffffffffffffffffff168273ffffffffffffffffffffffffffffffffffffffff161415611aca57611ac58161208f565b611b09565b8273ffffffffffffffffffffffffffffffffffffffff168273ffffffffffffffffffffffffffffffffffffffff1614611b0857611b0782826121d2565b5b5b505050565b6000808273ffffffffffffffffffffffffffffffffffffffff16803b806020016040519081016040528181526000908060200190933c51119050919050565b60606000821415611b95576040518060400160405280600181526020017f30000000000000000000000000000000000000000000000000000000000000008152509050611cf5565b600082905060005b60008214611bc7578080611bb0906132f2565b915050600a82611bc091906131a5565b9150611b9d565b60008167ffffffffffffffff811115611c09577f4e487b7100000000000000000000000000000000000000000000000000000000600052604160045260246000fd5b6040519080825280601f01601f191660200182016040528015611c3b5781602001600182028036833780820191505090505b5090505b60008514611cee57600182611c5491906131d6565b9150600a85611c63919061333b565b6030611c6f919061314f565b60f81b818381518110611cab577f4e487b7100000000000000000000000000000000000000000000000000000000600052603260045260246000fd5b60200101907effffffffffffffffffffffffffffffffffffffffffffffffffffffffffffff1916908160001a905350600a85611ce791906131a5565b9450611c3f565b8093505050505b919050565b600073ffffffffffffffffffffffffffffffffffffffff168273ffffffffffffffffffffffffffffffffffffffff161415611d6a576040517f08c379a0000000000000000000000000000000000000000000000000000000008152600401611d6190612fa0565b60405180910390fd5b611d738161169e565b15611db3576040517f08c379a0000000000000000000000000000000000000000000000000000000008152600401611daa90612ee0565b60405180910390fd5b611dbf6000838361170a565b6001600360008473ffffffffffffffffffffffffffffffffffffffff1673ffffffffffffffffffffffffffffffffffffffff1681526020019081526020016000206000828254611e0f919061314f565b92505081905550816002600083815260200190815260200160002060006101000a81548173ffffffffffffffffffffffffffffffffffffffff021916908373ffffffffffffffffffffffffffffffffffffffff160217905550808273ffffffffffffffffffffffffffffffffffffffff16600073ffffffffffffffffffffffffffffffffffffffff167fddf252ad1be2c89b69c2b068fc378daa952ba7f163c4a11628f55a4df523b3ef60405160405180910390a4611ed06000838361171a565b5050565b505050565b6008805490506009600083815260200190815260200160002081905550600881908060018154018082558091505060019003906000526020600020016000909190919091505550565b60006001611f2f846108af565b611f3991906131d6565b905060006007600084815260200190815260200160002054905081811461201e576000600660008673ffffffffffffffffffffffffffffffffffffffff1673ffffffffffffffffffffffffffffffffffffffff168152602001908152602001600020600084815260200190815260200160002054905080600660008773ffffffffffffffffffffffffffffffffffffffff1673ffffffffffffffffffffffffffffffffffffffff168152602001908152602001600020600084815260200190815260200160002081905550816007600083815260200190815260200160002081905550505b6007600084815260200190815260200160002060009055600660008573ffffffffffffffffffffffffffffffffffffffff1673ffffffffffffffffffffffffffffffffffffffff16815260200190815260200160002060008381526020019081526020016000206000905550505050565b600060016008805490506120a391906131d6565b90506000600960008481526020019081526020016000205490506000600883815481106120f9577f4e487b7100000000000000000000000000000000000000000000000000000000600052603260045260246000fd5b906000526020600020015490508060088381548110612141577f4e487b7100000000000000000000000000000000000000000000000000000000600052603260045260246000fd5b9060005260206000200181905550816009600083815260200190815260200160002081905550600960008581526020019081526020016000206000905560088054806121b6577f4e487b7100000000000000000000000000000000000000000000000000000000600052603160045260246000fd5b6001900381819060005260206000200160009055905550505050565b60006121dd836108af565b905081600660008573ffffffffffffffffffffffffffffffffffffffff1673ffffffffffffffffffffffffffffffffffffffff168152602001908152602001600020600083815260200190815260200160002081905550806007600084815260200190815260200160002081905550505050565b82805461225d906132c0565b90600052602060002090601f01602090048101928261227f57600085556122c6565b82601f1061229857805160ff19168380011785556122c6565b828001600101855582156122c6579182015b828111156122c55782518255916020019190600101906122aa565b5b5090506122d391906122d7565b5090565b5b808211156122f05760008160009055506001016122d8565b5090565b6000612307612302846130ac565b61307b565b90508281526020810184848401111561231f57600080fd5b61232a84828561327e565b509392505050565b6000612345612340846130dc565b61307b565b90508281526020810184848401111561235d57600080fd5b61236884828561327e565b509392505050565b60008135905061237f81613439565b92915050565b60008135905061239481613450565b92915050565b6000813590506123a981613467565b92915050565b6000815190506123be81613467565b92915050565b600082601f8301126123d557600080fd5b81356123e58482602086016122f4565b91505092915050565b600082601f8301126123ff57600080fd5b813561240f848260208601612332565b91505092915050565b6000813590506124278161347e565b92915050565b60006020828403121561243f57600080fd5b600061244d84828501612370565b91505092915050565b6000806040838503121561246957600080fd5b600061247785828601612370565b925050602061248885828601612370565b9150509250929050565b6000806000606084860312156124a757600080fd5b60006124b586828701612370565b93505060206124c686828701612370565b92505060406124d786828701612418565b9150509250925092565b600080600080608085870312156124f757600080fd5b600061250587828801612370565b945050602061251687828801612370565b935050604061252787828801612418565b925050606085013567ffffffffffffffff81111561254457600080fd5b612550878288016123c4565b91505092959194509250565b6000806040838503121561256f57600080fd5b600061257d85828601612370565b925050602061258e85828601612385565b9150509250929050565b6000806000606084860312156125ad57600080fd5b60006125bb86828701612370565b935050602084013567ffffffffffffffff8111156125d857600080fd5b6125e4868287016123ee565b925050604084013567ffffffffffffffff81111561260157600080fd5b61260d868287016123ee565b9150509250925092565b6000806040838503121561262a57600080fd5b600061263885828601612370565b925050602061264985828601612418565b9150509250929050565b60006020828403121561266557600080fd5b60006126738482850161239a565b91505092915050565b60006020828403121561268e57600080fd5b600061269c848285016123af565b91505092915050565b6000602082840312156126b757600080fd5b600082013567ffffffffffffffff8111156126d157600080fd5b6126dd848285016123ee565b91505092915050565b6000602082840312156126f857600080fd5b600061270684828501612418565b91505092915050565b6127188161320a565b82525050565b6127278161321c565b82525050565b60006127388261310c565b6127428185613122565b935061275281856020860161328d565b61275b81613428565b840191505092915050565b600061277182613117565b61277b8185613133565b935061278b81856020860161328d565b61279481613428565b840191505092915050565b60006127aa82613117565b6127b48185613144565b93506127c481856020860161328d565b80840191505092915050565b60006127dd602b83613133565b91507f455243373231456e756d657261626c653a206f776e657220696e646578206f7560008301527f74206f6620626f756e64730000000000000000000000000000000000000000006020830152604082019050919050565b6000612843603283613133565b91507f4552433732313a207472616e7366657220746f206e6f6e20455243373231526560008301527f63656976657220696d706c656d656e74657200000000000000000000000000006020830152604082019050919050565b60006128a9602683613133565b91507f4f776e61626c653a206e6577206f776e657220697320746865207a65726f206160008301527f64647265737300000000000000000000000000000000000000000000000000006020830152604082019050919050565b600061290f602583613133565b91507f4552433732313a207472616e736665722066726f6d20696e636f72726563742060008301527f6f776e65720000000000000000000000000000000000000000000000000000006020830152604082019050919050565b6000612975601c83613133565b91507f4552433732313a20746f6b656e20616c7265616479206d696e746564000000006000830152602082019050919050565b60006129b5602483613133565b91507f4552433732313a207472616e7366657220746f20746865207a65726f2061646460008301527f72657373000000000000000000000000000000000000000000000000000000006020830152604082019050919050565b6000612a1b601983613133565b91507f4552433732313a20617070726f766520746f2063616c6c6572000000000000006000830152602082019050919050565b6000612a5b602983613133565b91507f4552433732313a2061646472657373207a65726f206973206e6f74206120766160008301527f6c6964206f776e657200000000000000000000000000000000000000000000006020830152604082019050919050565b6000612ac1602e83613133565b91507f45524337323155524953746f726167653a2055524920736574206f66206e6f6e60008301527f6578697374656e7420746f6b656e0000000000000000000000000000000000006020830152604082019050919050565b6000612b27603e83613133565b91507f4552433732313a20617070726f76652063616c6c6572206973206e6f7420746f60008301527f6b656e206f776e6572206e6f7220617070726f76656420666f7220616c6c00006020830152604082019050919050565b6000612b8d602083613133565b91507f4552433732313a206d696e7420746f20746865207a65726f20616464726573736000830152602082019050919050565b6000612bcd602083613133565b91507f4f776e61626c653a2063616c6c6572206973206e6f7420746865206f776e65726000830152602082019050919050565b6000612c0d601883613133565b91507f4552433732313a20696e76616c696420746f6b656e20494400000000000000006000830152602082019050919050565b6000612c4d602183613133565b91507f4552433732313a20617070726f76616c20746f2063757272656e74206f776e6560008301527f72000000000000000000000000000000000000000000000000000000000000006020830152604082019050919050565b6000612cb3602c83613133565b91507f455243373231456e756d657261626c653a20676c6f62616c20696e646578206f60008301527f7574206f6620626f756e647300000000000000000000000000000000000000006020830152604082019050919050565b6000612d19602e83613133565b91507f4552433732313a2063616c6c6572206973206e6f7420746f6b656e206f776e6560008301527f72206e6f7220617070726f7665640000000000000000000000000000000000006020830152604082019050919050565b612d7b81613274565b82525050565b6000612d8d828461279f565b915081905092915050565b6000612da4828561279f565b9150612db0828461279f565b91508190509392505050565b6000602082019050612dd1600083018461270f565b92915050565b6000608082019050612dec600083018761270f565b612df9602083018661270f565b612e066040830185612d72565b8181036060830152612e18818461272d565b905095945050505050565b6000602082019050612e38600083018461271e565b92915050565b60006020820190508181036000830152612e588184612766565b905092915050565b60006020820190508181036000830152612e79816127d0565b9050919050565b60006020820190508181036000830152612e9981612836565b9050919050565b60006020820190508181036000830152612eb98161289c565b9050919050565b60006020820190508181036000830152612ed981612902565b9050919050565b60006020820190508181036000830152612ef981612968565b9050919050565b60006020820190508181036000830152612f19816129a8565b9050919050565b60006020820190508181036000830152612f3981612a0e565b9050919050565b60006020820190508181036000830152612f5981612a4e565b9050919050565b60006020820190508181036000830152612f7981612ab4565b9050919050565b60006020820190508181036000830152612f9981612b1a565b9050919050565b60006020820190508181036000830152612fb981612b80565b9050919050565b60006020820190508181036000830152612fd981612bc0565b9050919050565b60006020820190508181036000830152612ff981612c00565b9050919050565b6000602082019050818103600083015261301981612c40565b9050919050565b6000602082019050818103600083015261303981612ca6565b9050919050565b6000602082019050818103600083015261305981612d0c565b9050919050565b60006020820190506130756000830184612d72565b92915050565b6000604051905081810181811067ffffffffffffffff821117156130a2576130a16133f9565b5b8060405250919050565b600067ffffffffffffffff8211156130c7576130c66133f9565b5b601f19601f8301169050602081019050919050565b600067ffffffffffffffff8211156130f7576130f66133f9565b5b601f19601f8301169050602081019050919050565b600081519050919050565b600081519050919050565b600082825260208201905092915050565b600082825260208201905092915050565b600081905092915050565b600061315a82613274565b915061316583613274565b9250827fffffffffffffffffffffffffffffffffffffffffffffffffffffffffffffffff0382111561319a5761319961336c565b5b828201905092915050565b60006131b082613274565b91506131bb83613274565b9250826131cb576131ca61339b565b5b828204905092915050565b60006131e182613274565b91506131ec83613274565b9250828210156131ff576131fe61336c565b5b828203905092915050565b600061321582613254565b9050919050565b60008115159050919050565b60007fffffffff0000000000000000000000000000000000000000000000000000000082169050919050565b600073ffffffffffffffffffffffffffffffffffffffff82169050919050565b6000819050919050565b82818337600083830152505050565b60005b838110156132ab578082015181840152602081019050613290565b838111156132ba576000848401525b50505050565b600060028204905060018216806132d857607f821691505b602082108114156132ec576132eb6133ca565b5b50919050565b60006132fd82613274565b91507fffffffffffffffffffffffffffffffffffffffffffffffffffffffffffffffff8214156133305761332f61336c565b5b600182019050919050565b600061334682613274565b915061335183613274565b9250826133615761336061339b565b5b828206905092915050565b7f4e487b7100000000000000000000000000000000000000000000000000000000600052601160045260246000fd5b7f4e487b7100000000000000000000000000000000000000000000000000000000600052601260045260246000fd5b7f4e487b7100000000000000000000000000000000000000000000000000000000600052602260045260246000fd5b7f4e487b7100000000000000000000000000000000000000000000000000000000600052604160045260246000fd5b6000601f19601f8301169050919050565b6134428161320a565b811461344d57600080fd5b50565b6134598161321c565b811461346457600080fd5b50565b61347081613228565b811461347b57600080fd5b50565b61348781613274565b811461349257600080fd5b5056fea26469706673582212203ee60f3b90793b2dd3b6536a34b4d4cdf8fa1647aaee4a8c63c77368484e5e0564736f6c63430008000033",
  "linkReferences": {},
  "deployedLinkReferences": {}
}